:020000040800F2
:100000009007002099010008F1290008BB2700088B
:10001000ED290008850900086D2F00080000000088
:10002000000000000000000000000000112B00088C
:100030009909000800000000F3290008132B0008AC
:10004000B3010008B3010008B3010008B3010008C0
:10005000B3010008B3010008B3010008B3010008B0
:10006000B30100089B090008B3010008B3010008B0
:10007000B3010008B3010008B3010008B301000890
:10008000B3010008B3010008B3010008B301000880
:1000900089090008B3010008B3010008B301000892
:1000A000B3010008B3010008B3010008B301000860
:1000B000B3010008B3010008B3010008B301000850
:1000C000B3010008B3010008B3010008B301000840
:1000D000B3010008B3010008B3010008B301000830
:1000E000B3010008B3010008B3010008B301000820
:1000F000B3010008B3010008B3010008B301000810
:10010000B3010008B3010008B3010008B3010008FF
:10011000B3010008B3010008B3010008B3010008EF
:10012000B3010008B3010008B3010008B3010008DF
:10013000B30100080000000000000000B301000847
:10014000B3010008B3010008B3010008B3010008BF
:10015000B3010008B3010008B3010008B3010008AF
:10016000B3010008B3010008B3010008B30100089F
:10017000B3010008B3010008000000000000000007
:10018000B3010008DFF80CD000F01CFB004800476A
:100190009938000890070020064880470648004725
:1001A000FEE7FEE7FEE7FEE7FEE7FEE7FEE7FEE727
:1001B000FEE7FEE7892B0008850100082DE9F05FC6
:1001C0000546002092469B468846064681464024C6
:1001D0001BE0284641464746224600F006F95346B2
:1001E0005A46C01A914110D311461846224600F0D3
:1001F000EDF82D1A67EB01084F4622460120002139
:1002000000F0E4F817EB00094E41201EA4F10104B0
:10021000DFDC484631462A464346BDE8F09FD2B26D
:1002200001E000F8012B491EFBD270470022F6E7DF
:1002300010B513460A4604461946FFF7F0FF20465C
:1002400010BD2DE9F04D81EA030404F0004B21F0CC
:10025000004514464FF0000A23F0004150EA050221
:1002600020D054EA01021DD0C5F30A570246C5F357
:100270001303C1F31300C1F30A5640F4801543F48D
:100280008013A7EB0608101BD64608F2FD3873EB67
:10029000050002D308F1010801E092185B41B8F1B2
:1002A000000F03DA00200146BDE8F08D00204FF476
:1002B0008011064684460EE0171B73EB050705D335
:1002C000121B63EB050306434CEA010C49084FEA95
:1002D000300092185B4150EA0107EDD152EA030069
:1002E00012D082EA040083EA0501084305D0101BFE
:1002F000AB4106D20122002306E000224FF000436A
:1003000002E06FF0010253101AEB06004CEB0851AB
:1003100010EB0A0041EB0B01BDE8F04D00F0ACB86A
:100320000EB5C10F80EAE0700844CA07002140F210
:1003300033438DE80E000A460B4600F0ACF803B0DC
:1003400000BD00F0004230F000400AD0C10D01F5C0
:100350006071C0F3160042EA0151C2084007114320
:10036000704700200146704701F0004330B421F08F
:10037000004150EA010206D00A0DA2F56072C1F3F5
:100380001301002A02DC30BC00207047440F44EA0D
:10039000C104C100E01830BC00EBC25000F035B819
:1003A00030B50B46014600202022012409E021FA45
:1003B00002F59D4205D303FA02F5491B04FA02F542
:1003C0002844151EA2F10102F1DC30BD202A04DB15
:1003D000203A00FA02F1002070479140C2F1200358
:1003E00020FA03F3194390407047202A04DB203A97
:1003F00021FA02F00021704721FA02F3D040C2F145
:10040000200291400843194670470029A8BF704751
:10041000401C490008BF20F00100704710B4B0FA3A
:1004200080FC00FA0CF050EA010404BF10BC7047D5
:1004300049B1CCF1200421FA04F411FA0CF118BFEF
:10044000012121430843A3EB0C01CB1D4FEA0061BE
:100450004FEA102042BF002010BC704700EBC35091
:1004600010440029A4BF10BC7047401C490008BFBD
:1004700020F0010010BC704710B5141E73F1000489
:1004800008DA401C41F1000192185B411A4301D186
:1004900020F0010010BD2DE9F04D92469B4611B1B0
:1004A000B1FA81F202E0B0FA80F220329046FFF712
:1004B0008DFF04460F4640EA0A0041EA0B0153460D
:1004C0005A46084313D0114653EA010019D0C8F127
:1004D00040025046FFF789FF05460E4650465946F2
:1004E0004246FFF773FF084305D0012004E0204691
:1004F0003946BDE8F08D0020054346EAE0762C43FE
:1005000037430A986305E40AA0EB08000022FD0ABD
:1005100044EA47540A3002D500200146E9E70105C4
:1005200010196941DDE9084500196941BDE8F04D40
:10053000A2E72DE9FE4F804681EA0300C00F0C467A
:10054000009021F0004123F00045B8EB0200A941E2
:1005500005D24046214690461C460B46024623F0F3
:100560000040104347D0270DC7F30A00C3F30A51D8
:100570000290401A019040286BDAC3F3130040F454
:10058000801B0098924620B10023D2EB030A63EB54
:100590000B0B01985946C0F140025046FFF716FF79
:1005A00006460D4650465946019A00F01DF910EBDB
:1005B00008006141002487EA115284EAE7731A4374
:1005C00040D0009A62B3019A012A4FEA075215DC23
:1005D000001B61EB02014FF0004202EA0752CDE935
:1005E0000042001C41F5801132462B46FFF753FFB5
:1005F00003B0BDE8F08F40462146F9E7001B61EBF0
:100600000201001C41F5801300185B412018A2F57F
:10061000001747EB030140EAD570B6196D4111E0B0
:100620006D084FEA360645EAC0754FEA0752001BCF
:1006300061EB0201001C41F5801149084FEA3000CE
:100640000019514132462B4603B0BDE8F04FFFF789
:1006500013BF0098012240000023D0EB020263EB9D
:10066000E073009821464FEAE074B8EB000061EBBC
:100670000401E9E783F000435BE781F0004158E7BC
:100680002DE9FE4F81EA030404F0004421F000410B
:1006900000944FF0000B23F0004350EA01045ED0B9
:1006A00052EA03045BD0C3F30A54C1F30A552C4445
:1006B000A4F2F3340194A0FB0254C1F3130141F4FA
:1006C0008011C3F3130343F4801301FB024400FBC6
:1006D000034E840A970A44EA815447EA8357A4FBED
:1006E000076802958D0A05FB07854FEA932C04FBEA
:1006F0000C542705029D4FEA065847EA1637B5EB1A
:1007000008056EEB070C870E920E47EA811742EA46
:100710008312A7FB0201B6EB0B0164EB00042B0D67
:1007200043EA0C335E1844EB1C50DA465146E7FBB3
:100730000201C5F313044FEA0B3343EA14534FEAA3
:100740000432019C43EA0603A4F10C040294009CC9
:10075000CDE900B4FFF79FFE03B0BDE8F08F0020A5
:100760000146F9E7C1F30A52C1F3130140F2FF3326
:1007700041F480119A4202DA00200146704740F2AB
:1007800033439A42A2F2334202DC5242FFF72DBEBB
:10079000FFF71CBE30B5041E71F1000404DB4FF0FE
:1007A0000044404264EB0101141E73F1000405DBB8
:1007B0001C464FF00043524263EB0403994208BFCA
:1007C000904230BD064C074D06E0E06840F0010362
:1007D00094E8070098471034AC42F6D3FFF7D6FCF4
:1007E000543C0008743C0008202A06DBCB17203A52
:1007F00041FA02F043EAE07306E041FA02F3D04026
:10080000C2F1200291400843194670475A490968CD
:1008100021F44031594AC2F804131146D1F80413A7
:1008200042681143544A11600168496821F480719B
:100830000268516001684A68016942EA0121026860
:1008400051600168496821F0407102685160016897
:10085000496882681143026851600168896821F41F
:1008600000610268916001688968C268114302688A
:100870009160434A816A914218D00168896821F0E9
:1008800070610268916001688968826A1143026838
:1008900091600168896821F04051026891600168A7
:1008A0008968C26A1143026891600BE00168896837
:1008B00021F07061026891600168896821F04051FF
:1008C000026891600168896821F002010268916004
:1008D00001688A68816942EA410102689160016A9F
:1008E000D1B10168496841F4006102685160016852
:1008F000496821F460410268516001684A68416AB0
:10090000491E4FF4604393FAA3F3B3FA83F399407B
:100910000A4301684A6005E00168496821F4006102
:10092000026851600168C96A21F470010268D162ED
:100930000168CA6A818B491E42EA01510268D1628C
:100940000168896821F400710268916001688A6811
:10095000016B42EA4121026891600168896821F4D3
:1009600080610268916001688A68416942EA812178
:10097000026891607047000004230140002001409C
:100980000100000F00BFFEE710B5024800F0B0FA0A
:1009900010BD0000CC000020704710B5082000F00A
:1009A0006BFD10BD7047000018B502460020009096
:1009B00000BF92F83C00012801D1022018BD01209F
:1009C00082F83C0000BF0868092816D91068C06882
:1009D0000B780A3B03EB43040723A34098431368B7
:1009E000D8600B780A3B03EB430388689840136890
:1009F000DB6818431368D86013E0106800690B784F
:100A000003EB43040723A3409843136818610B7852
:100A100003EB43038868984013681B691843136805
:100A200018614868072817D21068406B0B795B1E65
:100A300003EB83041F23A34098431368586308887B
:100A400080B20B795B1E03EB8303984013685B6BEA
:100A500018431368586331E048680D2817D21068AE
:100A6000006B0B79DB1F03EB83041F23A340984328
:100A700013681863088880B20B79DB1F03EB8303CC
:100A8000984013681B6B18431368186316E01068CE
:100A9000C06A0B790D3B03EB83041F23A3409843EB
:100AA0001368D862088880B20B790D3B03EB83038F
:100AB00098401368DB6A18431368D8621B4B1068B0
:100AC000984208D10868122805D11948006840F4F6
:100AD0008000C3F80403154B106898421ED10868C3
:100AE000102802D00868112818D11148006840F475
:100AF00000000F4B1860086810280FD10D480068DF
:100B00000D4BB0FBF3F000EB80004000009002E0E2
:100B10000098401E009000980028F9D100BF0020E6
:100B200082F83C0000BF00BF48E700000020014001
:100B3000042301401800002040420F0070B5044615
:100B400000250CB9012070BD1549A06A884200D06B
:100B500000BF206C30B9204600F024F8002060640B
:100B600084F83C00206C00F0100088B9206C20F460
:100B7000885040F0020020642046FFF747FE002026
:100B80006064206C20F0020040F00100206400E06E
:100B9000012500BF002084F83C0000BF2846D2E7B2
:100BA0000100000F10B586B00446142101A8FFF71C
:100BB0003DFB1949206888422BD100BF00200090DE
:100BC0001648006840F480701449086008460068C0
:100BD00000F48070009000BF00BF00BF00200090B4
:100BE0000E481438006840F001000C4914390860C0
:100BF0000846006800F00100009000BF00BF02201E
:100C00000190032002900020039001A9044800F005
:100C100041FC06B010BD00000020014044380240F5
:100C20000000024010B5024692F82030012B01D09E
:100C3000022B06D1106840690843146860610020E7
:100C400010BD506A40F4802050620120F8E7000097
:100C5000F0B504460A46216894F82050012D01D0D1
:100C6000022D7ED1424901F50071086840F0010073
:100C70000860086820F47C5008600868566A40EAFA
:100C800006200860107D00F01F06012000FA06F320
:100C9000C8699843C861A1F50071D069C8B9D1F895
:100CA0000C029843C1F80C02908880B2968940EA01
:100CB000064601F51070576940F83760108880B219
:100CC000168940EA064601F51070576900EBC70027
:100CD0004660D069012819D1D1F80C021843C1F837
:100CE0000C02908880B2168840EA064601F5107022
:100CF000576940F83760908980B2168940EA064605
:100D000001F51070576900EBC7004660906928B97B
:100D1000D1F804029843C1F8040204E0D1F80402B7
:100D20001843C1F80402106928B9D1F81402984395
:100D3000C1F8140204E0D1F814021843C1F81402F7
:100D4000106A012804D1D1F81C021843C1F81C0212
:100D5000D1F8000220F00100C1F800020020F0BD2F
:100D6000FFE7606A40F4802060620120F7E700003E
:100D700000640040704770B5044694F82050012D7F
:100D800001D0022D7DD151B92068C06800F0030068
:100D900080B9606A40F400106062012070BD206874
:100DA000006900F0030028B9606A40F40010606236
:100DB0000120F3E7206800F5D87000EB011000680F
:100DC00000F004009060906840B9206800F5D87089
:100DD00000EB01100068400D106007E0206800F58E
:100DE000D87000EB01100068C0085060206800F562
:100DF000D87000EB0110006800F00200D06020689D
:100E000000F5D87000EB0110406800F00F00106191
:100E1000206800F5D87000EB0110406800F47F40B6
:100E2000000A9061206800F5D87000EB011040685E
:100E3000000C5061206800F5D87000EB011080684C
:100E40001870206800F5D87000EB0110806800F47D
:100E50007F40000A5870206800F5D87000EB011040
:100E6000806800F47F00000C9870206800F5D8704E
:100E700000EB01108068000ED870206800F5D87073
:100E800000E02FE000EB0110C0681871206800F549
:100E9000D87000EB0110C06800F47F40000A587160
:100EA000206800F5D87000EB0110C06800F47F00E6
:100EB000000C9871206800F5D87000EB0110C06834
:100EC000000ED87131B92068C06840F02000266853
:100ED000F06005E02068006940F02000266830617D
:100EE00000205BE7606A40F480206062012055E7E3
:100EF0002DE9F05F04460025206846692068D0F897
:100F00000490206887682068D0F80CA02068D0F88A
:100F100010B02068D0F8188006F00100002855D0E5
:100F200007F00100C0B101202168886007F00200CD
:100F300018B1204600F07FFA0EE007F0040010B16F
:100F400045F4006508E007F0080010B145F480554D
:100F500002E0204600F06EFA07F48070C8B14FF44A
:100F600080702168886007F4007018B1204600F096
:100F700064FA0EE007F4806010B145F4005508E013
:100F800007F4006010B145F4804502E0204600F00F
:100F900053FA07F48030C8B14FF48030216888607C
:100FA00007F4003018B1204600F049FA0EE007F4CB
:100FB000802010B145F4004508E007F4002010B18E
:100FC00045F4803502E0204600F038FA06F00800CB
:100FD00038B10AF0100020B145F4007510202168E6
:100FE000C86006F0040040B10AF0080028B10820EB
:100FF0002168C860204600F0A9F906F0020038B167
:101000002068C06800F0030010B1204600F0A0F98D
:1010100006F0400038B10BF0100020B145F48065B7
:1010200010202168086106F0200040B10BF0080094
:1010300028B1082021680861204600F0C9F906F0AF
:10104000100038B12068006900F0030010B120469C
:1010500000F0BFF906F4003040B109F0100028B1EB
:10106000102021684860204600F0B4F906F4803072
:1010700040B109F0080028B10820216848602046E6
:1010800000F0DEF906F4004088B309F0040078B3FC
:1010900006F4807020B108F0010008B145F00105A8
:1010A00006F4007020B108F0020008B145F0020516
:1010B00006F4806020B108F0040008B145F0040592
:1010C00006F40060A0B108F0700088B108F070006C
:1010D000402817D006DC10280BD020280CD0302850
:1010E00019D10CE0502810D0602814D110E01DE078
:1010F00019E045F008050FE045F010050CE045F05B
:10110000200509E045F0400506E045F0800503E0D4
:1011100045F4807500E000BF00BF2068806920F0C2
:101120007000216888610420216848602DB1606AE0
:10113000284360622046FFF71DFEBDE8F09F70B5B2
:1011400004460CB9012070BD94F8200010B9204667
:1011500000F0B0F82068006820F002002168086004
:1011600000F0A2FA05460DE000F09EFA401B0A28A6
:1011700008D9606A40F400306062052084F82000DD
:101180000120E0E72068406800F002000028EBD171
:101190002068006840F001002168086000F084FACF
:1011A00005460DE000F080FA401B0A2808D9606A65
:1011B00040F400306062052084F820000120C2E77E
:1011C0002068406800F001000028EBD0207E012854
:1011D00006D12068006840F080002168086005E0C2
:1011E0002068006820F0800021680860607E012887
:1011F00006D12068006840F040002168086005E0E2
:101200002068006820F0400021680860A07E012866
:1012100006D12068006840F020002168086005E0E1
:101220002068006820F0200021680860E07E012826
:1012300006D12068006820F010002168086005E0F1
:101240002068006840F0100021680860207F0128B5
:1012500006D12068006840F008002168086005E0B9
:101260002068006820F0080021680860607F01287D
:1012700006D12068006840F004002168086005E09D
:101280002068006820F0040021680860D4E90201A9
:10129000084321690843616908436168491E08439E
:1012A0002168C86100206062012084F820000020CD
:1012B00049E7000010B586B00446142101A8FEF7E6
:1012C000B5FF1F492068884238D100BF0020009038
:1012D0001C48006840F000701A4908600846006821
:1012E00000F00070009000BF00BF00BF0020009021
:1012F00014481038006840F00200124910390860A4
:101300000846006800F00200009000BF00BF4FF4E4
:10131000407001900220029001200390032004906D
:101320000920059001A9084800F0B4F800221146F0
:10133000142000F043FA142000F030FA06B010BD7B
:101340000064004040380240000402407047000042
:1013500010B58AB0044608AB134A00212046FFF7B7
:101360000AFDF0B99DF827009DF826109DF825206C
:101370009DF82430CDE90432CDE906109DF8230014
:101380009DF822109DF821209DF82030CDE90032F3
:10139000CDE90210044803694268416903A001F0E5
:1013A000E7FD0AB010BD0000400000202564203099
:1013B0007825782025642025782025782025782018
:1013C00025782025782025782025782025780A0082
:1013D00070477047704770B5044694F820000128A4
:1013E00022D1022084F820002068006820F001004B
:1013F0002168086000F058F905460DE000F054F946
:10140000401B0A2808D9606A40F400306062052059
:1014100084F82000012070BD2068406800F00100C1
:101420000028EBD16062F6E7606A40F40020606259
:101430000120F0E77047704770477047704770476A
:101440007047000031B500F02FF90546009C601C84
:1014500010B105480078044400BF00F025F9401B96
:10146000A042FAD338BD0000140000200121014A37
:10147000117070470100002010B504460448006850
:10148000204020B1024804602046FFF7EFFF10BD66
:10149000143C014078B502460023E0E001269E405E
:1014A0000D6805EA0604002C73D04D68022D02D0A9
:1014B0004D68122D13D1DE0802F1200555F82600E3
:1014C0005D07EE0E0F25B540A8435E07F60E0D69C9
:1014D000B5402843DE0802F1200545F826001068D3
:1014E0005E000325B540A8430D7905F003055E00B5
:1014F000B540284310604D68012D08D04D68022D7D
:1015000005D04D68112D02D04D68122D13D1906871
:101510005E000325B540A8435E00CD68B540284372
:101520009060506801259D40A8430D79C5F30015D2
:101530009D4028435060D0685E000325B540A84315
:101540005E008D68B5402843D0604D6805F0805539
:10155000B5F1805F1DD100BF00250095434D2D687A
:1015600045F48045414E356035462D6805F480458B
:10157000009500BF00BF3E4D9E0855F826009D0710
:101580002E0F0F25B540A8433A4DAA4202D100259F
:1015900029E063E0384DAA4201D1012523E0374D0F
:1015A000AA4201D102251EE0354DAA4201D10325F0
:1015B00019E0344DAA4201D1042514E0324DAA426B
:1015C00001D105250FE0314DAA4201D106250AE0DF
:1015D0002F4DAA4201D1072505E02E4DAA4201D187
:1015E000082500E009259E07360FB5402843204D09
:1015F0009E0845F82600284D2868A0434D6805F44C
:101600008035B5F5803F00D12043234D28602D1D46
:101610002868A0434D6805F40035B5F5003F00D1BA
:1016200020431D4D2D1D28602D1D2868A0434D68A9
:1016300005F48015B5F5801F00D12043164D0835FF
:1016400028602D1D2868A0434D6805F40015B5F5E8
:10165000001F00D12043104D0C3528605B1C0D6825
:10166000DD40002D7FF41AAF78BD00004438024001
:101670000838014000000240000402400008024017
:10168000000C02400010024000140240001802400A
:10169000001C024000200240003C01400AB1816170
:1016A00001E00B0483617047014800687047000047
:1016B0000C000020034800680349097808440149E8
:1016C000086070470C0000201400002010B50D4881
:1016D000006840F400700B4908600846006840F458
:1016E000806008600846006840F48070086003204D
:1016F00000F0A2F8002000F007F800F02BF800201E
:1017000010BD0000003C024070B504460E48007851
:101710004FF47A71B1FBF0F00C490968B1FBF0F5B8
:10172000284600F047FF08B1012070BD102C07D2F9
:1017300000222146501E00F041F80548046001E0F7
:101740000120F2E70020F0E714000020180000203C
:101750001000002008B500BF002000900E4800686F
:1017600040F480400C4908600846006800F480405E
:10177000009000BF00BF00BF00200090081F00685D
:1017800040F08050091F08600846006800F0805053
:10179000009000BF00BF08BD443802400146084623
:1017A000002809DB00F01F0301229A4043099B0037
:1017B00003F1E023C3F8002100BF70472DE9F05F7B
:1017C00080460D461646002701F0E2FB07463946E3
:1017D0002A46334601F00700C0F1070ABAF1040FA8
:1017E00002D94FF0040A01E0C0F1070AD14600F126
:1017F000040ABAF1070F02D24FF0000A01E0A0F18B
:10180000030AD4464FF0010A0AFA09FAAAF1010ABA
:101810000AEA020A0AFA0CFA4FF0010B0BFA0CFB67
:10182000ABF1010B0BEA030B4AEA0B0421464046DD
:1018300001F0B6FBBDE8F09F00BF00F00702064BC9
:1018400019684FF6FF031940044B0B4343EA02218A
:10185000014B196000BF70470CED00E00000FA0575
:1018600070B504460D460CB9012070BD5A48006899
:1018700000F00F00A84209D257490D7008460068D1
:1018800000F00F00A84201D00120EEE7207800F020
:10189000020002281DD1207800F00400042805D1A0
:1018A0004E48006840F4E0504C490860207800F051
:1018B0000800082805D14948006840F460404749BD
:1018C00008604648006820F0F000A16808434349DA
:1018D0000860207800F0010090B36068012807D10B
:1018E0003E4808380068C0F34040A0B90120BCE77A
:1018F0006068022807D1394808380068C0F34060A2
:1019000048B90120B1E7354808380068C0F3400005
:1019100008B90120A9E73148006820F00300616898
:1019200008432E490860FFF7BFFE064609E0FFF7AF
:10193000BBFE801B41F28831884202D9032094E724
:1019400007E02648006800F00C006168B0EB810FEA
:10195000EDD12148006800F00F00A84209D91E49C6
:101960000D700846006800F00F00A84201D0012069
:101970007BE7207800F00400042807D117480068AE
:1019800020F4E050E168084314490860207800F032
:101990000800082808D11148006820F46040216937
:1019A00040EAC1000D49086000F052F80B4909688F
:1019B00001F0F001F02292FAA2F2B2FA82F2D140E2
:1019C000074A515CC8400749086007480068FFF7AC
:1019D0009BFE002049E70000003C0240083802401E
:1019E0003C3C00081800002010000020014800685E
:1019F000704700001800002000B5FFF7F7FF074907
:101A0000096801F4E0514FF4E05292FAA2F2B2FAFE
:101A100082F2D140024A515CC84000BD0838024001
:101A20004C3C000800B5FFF7E1FF0749096801F4E5
:101A300060414FF4604292FAA2F2B2FA82F2D140CF
:101A4000024A515CC84000BD083802404C3C0008C6
:101A50002DE9F047002400250026A146254800680E
:101A600000F00C0020B1042805D008283AD105E088
:101A7000DFF8849039E0DFF8849036E01D48001FDD
:101A8000006800F03F041B48001F006800F480005D
:101A900078B11A481749091F0968C1F38811A0FBDA
:101AA00001700146224600233846FEF787FB0546B3
:101AB0000EE011480F49091F0968C1F38811A0FB06
:101AC00001700146224600233846FEF777FB0546A3
:101AD0000848001F0068C0F30140401C4600B5FBE9
:101AE000F6F902E0DFF8109000BF00BF4846BDE8FD
:101AF000F0870000083802400024F40040787D019F
:101B0000F8B504460CB90120F8BD207800F00100BA
:101B1000002848D0FB48006800F00C0004280DD0D5
:101B2000F848006800F00C00082811D1F548001FA3
:101B3000006800F48000B0F5800F09D1F148083842
:101B40000068C0F3404070B3606860BB0120DBE711
:101B50002079EC49891F0870606890B1FFF7A4FDF7
:101B6000054606E0FFF7A0FD401B642801D90320CD
:101B7000CAE7E44808380068C0F340400028F1D0C4
:101B800011E0FFF791FD054606E0FFF78DFD401BD4
:101B9000642801D90320B7E7DA4808380068C0F3A1
:101BA00040400028F1D1207800F00200022869D1DD
:101BB000D448006800F00C0058B1D248006800F02A
:101BC0000C00082821D1CF48001F006800F48000D5
:101BD000D8B9CC4808380068C0F3400020B1E068AC
:101BE000012801D001208FE7C6480838006820F09E
:101BF000F800F82292FAA2F2B2FA82F22169914038
:101C00000843C049083908603CE0E06828B3012077
:101C1000BD490860FFF748FD054606E0FFF744FDB3
:101C2000401B022801D903206EE7B6480838006837
:101C3000C0F340000028F1D0B2480838006820F016
:101C4000F800F82292FAA2F2B2FA82F221699140E7
:101C50000843AC490839086014E00020AA4908602C
:101C6000FFF722FD054606E0FFF71EFD401B022898
:101C700001D9032048E7A34808380068C0F34000B2
:101C80000028F1D1207800F0080008282CD16069E4
:101C9000A8B101209D490860FFF706FD054606E052
:101CA000FFF702FD401B022801D903202CE79548CD
:101CB0006C300068C0F340000028F1D014E0002030
:101CC00092490860FFF7F0FC054606E0FFF7ECFCE0
:101CD000401B022801D9032016E78A486C300068AF
:101CE000C0F340000028F1D1207800F0040004285F
:101CF00074D1002683483830006800F0805090B9D5
:101D000000BF002000907F483830006840F08050CD
:101D10007C49383108600846006800F08050009027
:101D200000BF00BF01267A48006840F480707849FF
:101D300008600846006800F48070A8B9084600688A
:101D400040F480700860FFF7AFFC054606E0FFF73F
:101D5000ABFC401B022801D90320D5E66C48006883
:101D600000F480700028F2D0207A6649683108704B
:101D7000A068A0B1FFF798FC054608E0FFF794FCC7
:101D8000401B41F28831884201D90320BCE65D48FE
:101D900068300068C0F340000028EFD013E0FFF780
:101DA00083FC054608E0FFF77FFC401B41F28831C9
:101DB000884201D90320A7E6524868300068C0F382
:101DC00040000028EFD1012E07D14E48383000687E
:101DD00020F080504B493831086000BFA0690028CE
:101DE00056D04848006800F00C00082867D0A06969
:101DF00002284ED1002044490866FFF755FC0546ED
:101E000006E0FFF751FC401B642801D903207BE664
:101E10003C4808380068C0F340600028F1D1D4E99C
:101E20000701084347F6C07292FAA2F2B2FA82F2B0
:101E3000616A914008430122A16AC2EB51014FF44B
:101E4000403292FAA2F2B2FA82F2914008434FF085
:101E5000706292FAA2F2B2FA82F2E16A9140084309
:101E60002849091F0860012027490866FFF71CFC64
:101E7000054606E0FFF718FC401B642801D9032043
:101E800042E6204808380068C0F340600028F1D0DE
:101E900041E000201C490866FFF706FC054606E005
:101EA000FFF702FC401B642801D903202CE61548EB
:101EB00008380068C0F340600028F1D12BE0A06929
:101EC000012800D120E60F48001F016801F48002BC
:101ED000E069824213D101F03F02206A82420ED1B2
:101EE000C1F38812606A904209D101F44032A06ABD
:101EF000824204D101F07062E06A82420AD001207D
:101F000002E600000838024000004742800E4742C7
:101F10000070004000BF0020F6E510B504460CB983
:101F2000012010BD606A00B900BF0021A16294F8D1
:101F3000510028B9002084F85000204600F034F801
:101F4000022084F851002068006820F040002168D9
:101F50000860D4E901010843E168084321690843A6
:101F600061690843218B01F400710843E16908436A
:101F7000216A0843A16A0843216808600421A06916
:101F800001EA1040616A0843216848602068C0691E
:101F900020F400602168C86100206065012084F899
:101FA00051000020BDE7000010B586B004461421A2
:101FB00001A8FEF73BF91B49206888422FD100BFDA
:101FC000002000901848006840F4805016490860CE
:101FD0000846006800F48050009000BF00BF00BFBA
:101FE0000020009010481438006840F001000E49AD
:101FF000143908600846006800F00100009000BF36
:1020000000BFE020019002200290002003900320F6
:1020100004900520059001A90448FFF73BFA06B09B
:1020200010BD000000300140443802400000024072
:102030002DE9F8430446884616461D464FF0000930
:102040006068B0F5827F0DD1A06858B9042084F88B
:1020500051003346424641462046009500F095F92E
:10206000BDE8F88300BF94F85000012801D1022098
:10207000F6E7012084F8500000BFFFF715FB074684
:1020800094F85100012802D04FF0020978E0B8F12D
:10209000000F00D016B94FF0010971E0042084F858
:1020A000510000206065C4F83880A687E687206369
:1020B000A086E08620646064A068B0F5004F05D17A
:1020C0002068006820F4804021680860206800686B
:1020D00000F04000402805D02068006840F0400033
:1020E00021680860E068F8B91AE02068806800F0AC
:1020F000010050B12068007BA16B0870A06B401CF0
:10210000A063E08F401EE0870AE0FFF7CDFAC01B16
:10211000A84201D3681C00B915B94FF003092FE09C
:10212000E08F0028E1D11EE01AE02068806800F00E
:10213000010050B12068C068A16B0880A06B801CB2
:10214000A063E08F401EE0870AE0FFF7ADFAC01BF6
:10215000A84201D3681C00B915B94FF003090FE07C
:10216000E08F0028E1D13A462946204600F042FCA3
:1021700008B120206065606D08B14FF0010900BF13
:10218000012084F8510000BF002084F8500000BFF7
:10219000484665E72DE9F04105460E461746984644
:1021A000002210210E48FFF779FA05230222294662
:1021B0000C4800F019F8002408E0022000FB04613C
:1021C000052302460748FFF733FF641CBC42F4DBDB
:1021D000012210210248FFF761FABDE8F0810000FA
:1021E00000000240F40000202DE9F84F0446884624
:1021F00016461D464FF0000A00BF94F85000012813
:1022000002D10220BDE8F88F012084F8500000BF01
:10221000FFF74AFA0746B14694F85100012802D068
:102220004FF0020AA7E0B8F1000F00D016B94FF046
:10223000010AA0E0032084F8510000206065C4F882
:102240003080A686E686A063A087E087606420646D
:10225000A068B0F5004F05D12068006840F48040C8
:10226000216808602068006800F04000402805D020
:102270002068006840F0400021680860E068B0F520
:10228000006F2FD1606810B1B9F1010F09D1206B37
:1022900000882168C860206B801C2063E08E401E8F
:1022A000E0861BE02068806800F0020002280AD166
:1022B000206B00882168C860206B801C2063E08E42
:1022C000401EE0860AE0FFF7EFF9C01BA84201D3E9
:1022D000681C00B915B94FF0030A4CE0E08E0028E5
:1022E000E0D12EE0606810B1B9F1010F09D1206B87
:1022F000007821680873206B401C2063E08E401E2C
:10230000E0861BE02068806800F0020002280AD105
:10231000206B007821680873206B401C2063E08EDE
:10232000401EE0860AE0FFF7BFF9C01BA84201D3B8
:10233000681C00B915B94FF0030A1CE0E08E0028B4
:10234000E0D13A462946204600F07AFB08B1202029
:102350006065A06850B900BF002000902068C06888
:10236000009020688068009000BF00BF606D08B1D9
:102370004FF0010A00BF012084F8510000BF002087
:1023800084F8500000BF50463CE72DE9FF5F04464B
:10239000884691461D460E9E012002900020019025
:1023A00000BF94F85000012803D1022004B0BDE81A
:1023B000F09F012084F8500000BFFFF775F9074631
:1023C00094F851B060680390AA46BBF1010F0BD09E
:1023D0000398B0F5827F04D1A06810B9BBF1040F57
:1023E00002D002200190DBE0B8F1000F03D0B9F178
:1023F000000F00D015B901200190D1E094F85100F0
:10240000042802D0052084F8510000206065C4F83B
:102410003890E587A587C4F83080E586A5862064D6
:1024200060642068006800F04000402805D0206803
:10243000006840F0400021680860E068B0F5006F77
:102440004AD1606810B1BAF1010F09D1206B008840
:102450002168C860206B801C2063E08E401EE086EF
:1024600033E02068806800F00200022810D1E08E7E
:1024700070B1029801280BD1206B00882168C860D8
:10248000206B801C2063E08E401EE08600200290BE
:102490002068806800F0010068B1E08F58B12068C2
:1024A000C068A16B0880A06B801CA063E08F401EF9
:1024B000E08701200290FFF7F7F8C01BB04204D379
:1024C000701C10B1032001906AE0E08E0028C8D192
:1024D000E08F0028C5D14AE0606810B1BAF1010F61
:1024E00009D1206B007821680873206B401C2063A1
:1024F000E08E401EE08634E02068806800F0020034
:10250000022810D1E08E70B1029801280BD1206B07
:10251000007821680873206B401C2063E08E401E09
:10252000E086002002902068806800F0010068B119
:10253000E08F58B12068C068A16B0870A06B401C88
:10254000A063E08F401EE08701200290FFF7ACF807
:10255000C01BB04201D3701C00B916B90320019012
:102560001EE0E08E0028C7D1E08F0028C4D13A4693
:102570003146204600F064FA20B10120019020206D
:1025800060650DE0A06850B900BF00200090206891
:10259000C068009020688068009000BF00BF00BF46
:1025A000012084F8510000BF002084F8500000BFD3
:1025B0000198FBE670B504462546681EB0F1807FA1
:1025C00001D301200FE0681E4FF0E02148610F2188
:1025D0004FF0FF3000F0E4FC00204FF0E021886174
:1025E00007200861002070BD10B504460CB9012019
:1025F00010BDA06900B100E000BF94F8390028B90F
:10260000002084F83800204600F028F8242084F8C0
:1026100039002068C06820F400502168C860204656
:1026200000F0DCFA2068006920F49040216808611D
:102630002068406920F02A00216848612068C0684D
:1026400040F400502168C8600020E063202084F836
:10265000390084F83A000020CAE7000010B586B0BF
:102660000446142101A8FDF7E1FD1B4920688842BA
:102670002FD100BF002000901848006840F01000E3
:10268000164908600846006800F01000009000BF7E
:1026900000BF00BF0020009010481438006840F0D0
:1026A00002000E49143908600846006800F0020074
:1026B000009000BF00BFC0200190022002900020C7
:1026C0000390032004900720059001A90448FEF719
:1026D000E1FE06B010BD0000001001404438024089
:1026E000000402402DE9F84304460D4616461F46F5
:1026F0004FF0000994F8390020285CD105B116B9D3
:102700000120BDE8F88300BF94F83800012801D10A
:102710000220F6E7012084F8380000BF0020E063C3
:10272000212084F83900FEF7BFFF8146A684E684A5
:102730002BE0E08C401EE084A068B0F5805F16D1ED
:102740004B46002280212046009700F0D9FB08B1BB
:102750000320D6E7A846B8F80000C0F308002168B7
:102760004860206908B9AD1C0FE06D1C0DE04B46B8
:10277000002280212046009700F0C2FB08B1032010
:10278000BFE715F8010B21684860E08C0028D0D124
:102790004B46002240212046009700F0B1FB08B1D3
:1027A0000320AEE7202084F8390000BF002084F821
:1027B000380000BFA5E70220A3E700BFFEE7000046
:1027C0001FB5002000900190029003901348144917
:1027D000086000204860002111488160016181612A
:1027E0000162C1620F4981620021C1600121C161A2
:1027F0000021016301214161FEF7A0F908B1FEF754
:10280000D1F8012000900190002002906946044810
:10281000FEF7CAF808B1FEF7C5F81FBD0020014059
:10282000840000200100000F10B50E480E4908601A
:102830000C20486000210C488160C1604FF4A02149
:1028400001614FF4001141610021017641768176EA
:10285000C17601774177FEF772FC08B1FEF7A2F866
:1028600010BD000000640040CC00002000B587B01F
:10287000142102A8FDF7DAFC00BF002001903648C1
:10288000006840F00400344908600846006800F021
:102890000400019000BF00BF00BF00200190084667
:1028A000006840F0010008600846006800F0010080
:1028B000019000BF00BF00BF0020019008460068E3
:1028C00040F0020008600846006800F00200019035
:1028D00000BF00BF002241F214012048FEF7DEFED7
:1028E00000224FF400411E48FEF7D8FE022002905D
:1028F000002003900120049002A91A48FEF7CAFDA7
:1029000008200290184803900120049002A915485D
:10291000FEF7C0FD41F21400029001200390002058
:102920000490059002A90D48FEF7B4FD4FF4004055
:1029300002900120039000200490059002A908480D
:10294000FEF7A8FD002211460920FEF737FF0920F7
:10295000FEF724FF07B000BD3038024000000240FF
:1029600000040240000802400000211010B50F488A
:102970000F4908604FF48270486000210C48816064
:10298000C160022101610121416149028161282167
:10299000C16100210162416281620A21C162FFF7C7
:1029A000BCFA08B1FDF7FEFF10BD00000030014089
:1029B000F400002010B50B480B4908604FF461206B
:1029C0004860002108488160C16001610C214161BB
:1029D00000218161C161FFF707FE08B1FDF7E2FF49
:1029E00010BD0000001001404C01002000BFFEE7B8
:1029F00070477047F8B504460D4616466068B0F556
:102A0000827F0DD1A068B0F5004F03D0A068B0F56B
:102A1000806F05D12068006820F0400021680860C0
:102A20002B46002280212046009600F01DF828B198
:102A3000606D40F0200060650320F8BD0020FCE7D9
:102A4000F8B504460D4616462B4600228021204646
:102A5000009600F009F828B1606D40F02000606534
:102A60000320F8BD0020FCE72DE9F04104460E46A6
:102A700017461D46DDF818803EE0681CD8B3FEF707
:102A800013FEA0EB0800A84200D2A5BB2068406856
:102A900020F0E000216848606068B0F5827F0DD1C9
:102AA000A068B0F5004F03D0A068B0F5806F05D1E5
:102AB0002068006820F0400021680860A06AB0F536
:102AC000005F0DD100BF2068006820F4005021682D
:102AD00008602068006840F400502168086000BF6A
:102AE000012084F8510000BF002084F8500000BF8E
:102AF0000320BDE8F081FFE7206880683040B042E5
:102B000001D1012000E00020B842B6D10020F0E75A
:102B1000704710B5FEF7CEFD10BD00B591B0302165
:102B200005A8FDF783FB14216846FDF77FFB022013
:102B30000590012008901020099002200B900021A0
:102B40000C9110210D91F0210E9102210F91042181
:102B5000109105A8FEF7D4FF08B1FDF723FF0F2061
:102B6000009002200190002002904FF4A0500390AA
:102B70004FF48050049003216846FEF771FE08B1BF
:102B8000FDF710FF11B000BD1048006840F00100D3
:102B90000E49086000200D49083108600B480068A4
:102BA0000B490840094908600A48091D0860081FC8
:102BB000006820F48020091F0860002003490C31C0
:102BC00008604FF000600449086070470038024018
:102BD000FFFFF6FE1030002408ED00E070B504465B
:102BE0002168096921F44051E268114322681161AA
:102BF0002269A168114362691143E26941EA020551
:102C00002168C96849F20C62914329432268D16066
:102C10002168496921F44071A26911432268516118
:102C2000E169B1F5004F7DD1B34A2168914203D0EB
:102C3000B24A2168914255D1FEF7F4FE00EBC00183
:102C400001EB001162685200B1FBF2F16422B1FBAA
:102C5000F2F10A0100EBC00101EB001163685B00B7
:102C6000B1FBF3F100EBC00303EB001366687600E1
:102C7000B3FBF6F36426B3FBF6F303EBC30606EBF4
:102C80000313A1EB8301322303EBC1016423B1FBE6
:102C9000F3F101F0F80102EB410200EBC00101EB9E
:102CA000001163685B00B1FBF3F100EBC00303EBC1
:102CB000001366687600B3FBF6F36426B3FBF6F305
:102CC00003EBC30606EB0313A1EB8301322303EBF3
:102CD000C1016423B1FBF3F101F007011144226843
:102CE000916008E1FEF788FE00EBC00101EB0011E6
:102CF00062685200B1FBF2F16422B1FBF2F10A0109
:102D000000EBC00101EB001163685B00B1FBF3F164
:102D100000EBC00303EB001366687600B3FBF6F329
:102D2000642600E036E0B3FBF6F303EBC30606EBE4
:102D30000313A1EB8301322303EBC1016423B1FB35
:102D4000F3F101F0F80102EB410200EBC00101EBED
:102D5000001163685B00B1FBF3F100EBC00303EB10
:102D6000001366687600B3FBF6F36426B3FBF6F354
:102D700003EBC30606EB0313A1EB8301322303EB42
:102D8000C1016423B1FBF3F101F007011144226892
:102D90009160B0E0584A2168914203D0574A2168B7
:102DA000914254D1FEF73EFE00EBC00101EB001151
:102DB00062689200B1FBF2F100EBC00202EB00127C
:102DC00063689B00B2FBF3F26423B2FBF3F202EB05
:102DD000C20303EB0212A1EB8201322202EB0111CA
:102DE0006422B1FBF2F101F0F00100EBC00202EB52
:102DF000001263689B00B2FBF3F26423B2FBF3F2B0
:102E000001EB021200EBC00101EB001163689B00B3
:102E1000B1FBF3F100EBC00303EB00136668B600EF
:102E2000B3FBF6F36426B3FBF6F303EBC30606EB42
:102E30000313A1EB8301322303EB01116423B1FBE4
:102E4000F3F101F00F0111442268916053E0FEF7A5
:102E5000D3FD00EBC00101EB001162689200B1FBF1
:102E6000F2F100EBC00202EB001263689B00B2FBC0
:102E7000F3F26423B2FBF3F202EBC20303EB0212A0
:102E8000A1EB8201322202EB01116422B1FBF2F1CB
:102E900001F0F00100EBC00202EB001263689B003E
:102EA000B2FBF3F26423B2FBF3F201EB021200EB8C
:102EB000C00101EB001163689B00B1FBF3F100EB73
:102EC000C00303EB00136668B600B3FBF6F3642699
:102ED000B3FBF6F303EBC30606EB0313A1EB83018D
:102EE000322303EB01116423B1FBF3F101F00F0175
:102EF00011442268916070BD00100140001401402F
:102F00002DE9F04104460D4617469846069E21E0FD
:102F1000701CF8B12EB1FEF7C7FBA0EB0800B04261
:102F200018D92068C06820F4D0702168C860206873
:102F3000406920F0010021684861202084F83900B0
:102F400084F83A0000BF002084F8380000BF032056
:102F5000BDE8F081206800682840A84201D1012026
:102F600000E00020B842D3D00020F1E700BFFEE728
:102F70000FB4054B10B503A9044A029800F0E6F817
:102F800010BC5DF814FB00007D3800081C00002018
:102F900002480068C0F30220704700000CED00E01A
:102FA00010B5002804DB0A07130E054A135406E087
:102FB0000A07140E034A00F00F031B1FD45410BD60
:102FC00000E400E018ED00E002E008C8121F08C1AC
:102FD000002AFAD170477047002001E001C1121F9A
:102FE000002AFBD1704700002DE9FF5FDDE90220D8
:102FF000010DDDF838B0024318D044F61050A1F2AC
:10300000FF3141430D140F98012820D0A5EB0B0090
:10301000401C5FEA000A4FF00004474EDFF81C91A5
:10302000A046504616D5CAF1000728E00F980124A3
:1030300043A2012808D0002100980F9BC0E900217D
:10304000C0E90243BDE8FF9F6FEA0B01F4E7CBF153
:103050000000DEE7074612E0F80707D022463346B5
:1030600040464946FDF70CFB8046894622463346DA
:1030700010461946FDF704FB04460E467F10002F4C
:10308000EAD1DDE90201BAF1000F42464B4602DA0D
:10309000FDF7F6FA01E0FDF7D4F804460E460022EB
:1030A000284BFDF777FB03D84FF0FF30014607E0D0
:1030B0000022254B20463146FDF73BFAFDF752FB37
:1030C000102409E0002C0ADB0A220023FDF776F821
:1030D000019B30321A55641E50EA0102F2D1641C81
:1030E000019AC4F1110314440F9A012A03D001225A
:1030F00008430DD10AE0084304D000204FF0110B23
:103100000F9080E7A3EB0B056D1E0DE05B4504DD22
:103110004FF0000205F1010504E003DA4FF0000270
:10312000A5F10105002AECD000980F99C0E9023101
:10313000C0E9004586E70000000024400000F03FA1
:10314000300000000000F0430000E03F2DE9FF4F99
:1031500095B09B468946064600250FE2252877D183
:1031600000242746F84A0121059400E0044316F89C
:10317000013F203B01FA03F01042F7D130782A28B2
:1031800011D06FF02F033078A0F13002092A16D841
:10319000059A44F0020402EB820203EB420210445F
:1031A000761C0590EFE759F8042B0592002A03DA04
:1031B000504244F40054059044F00204761C3078E8
:1031C0002E2816D116F8010F44F004042A280DD039
:1031D0006FF02F023078A0F13003092B09D807EBEC
:1031E000870302EB4303C718761CF3E759F8047B07
:1031F000761C30786C280FD006DC4C2817D0682855
:103200000DD06A2814D104E0742810D07A280FD188
:103210000DE044F400140AE044F4801401E044F4A6
:1032200040147278824202D104F58014761C761C18
:10323000307866280BD013DC582877D009DC0028BA
:1032400075D04528F6D04628F4D047281AD19DE1FC
:1032500018E0632835D0642879D0652812D195E12B
:10326000702873D008DC6728F1D069286FD06E28E9
:103270000DD06F2806D1B5E073282CD0752875D0F5
:10328000782874D05A46179990476D1C75E1C4F39D
:103290000250022809D003280DD0D9F800100428C4
:1032A0000DD00D6009F1040967E1D9F80010EA17A3
:1032B000C1E90052F6E7D9F800100D80F2E70D7071
:1032C000F0E719F8041B8DF8001000208DF80100BC
:1032D000EA46012003E059F804AB4FF0FF306107E4
:1032E0004FF0000102D40DE008F101018846B94217
:1032F0000FDA8045F8DB1AF808100029F4D108E04D
:1033000008F1010188468142FADB1AF80810002909
:10331000F6D105985B46A0EB080721463846179A78
:1033200000F094FA284400EB080507E04DE029E19D
:103330000DE01AF8010B5A4617999047B8F10108A9
:10334000F7D25B4621463846179A13E142E00A223B
:103350000092C4F302524FF0000A022A08D059F832
:1033600004CB032A4FEAEC710AD00DE029E02AE0F1
:1033700009F1070121F00702F2E802C1914609E0D4
:103380000FFA8CFC4FEAEC71042A03D14FFA8CFC43
:103390004FEAEC71002907DA0A460021DCF1000C43
:1033A00061EB02012D2202E0220504D52B228DF8CB
:1033B0000420012203E0E20701D02022F7E7904633
:1033C00059E00A2102E010220DE010214FF0000A1E
:1033D00000910BE010224FF0000A44F0040408278B
:1033E000009203E008224FF0000A0092C4F3025258
:1033F000022A05D059F804CB0021032A08D009E09D
:1034000009F1070121F00702F2E802C1914605E047
:103410001FFA8CFC042A01D10CF0FF0C4FF00008BD
:10342000220728D5702806D0009B83F0100353EAAA
:103430000A0305D00EE040228DF80420012208E0A6
:103440005CEA010206D030228DF804208DF80500D8
:1034500002229046009B83F0080353EA0A030AD134
:103460005CEA010201D1620705D530228DF8042003
:103470004FF001087F1E582804D034A003900EA8F6
:1034800002900DE036A0F9E753466046009AFCF73B
:1034900095FE84460398825C0298401E029002705A
:1034A0005CEA0100F0D1029806A9081A00F1200A8E
:1034B000600702D524F4803400E00127574502DD7F
:1034C000A7EB0A0000E0002000EB0A01009005983D
:1034D0004144401A0590E00306D45B462146179A02
:1034E000059800F0B3F90544002706E001A85A4604
:1034F000C05D179990476D1C7F1C4745F6DBE003C4
:103500000CD55B462146179A059800F09FF90544B3
:1035100004E030205A46179990476D1C0099481EC8
:1035200000900029F5DC08E0029802995A460078DC
:10353000491C0291179990476D1CBAF10001AAF13C
:10354000010AF1DC65E10000092801003031323365
:1035500034353637383961626364656600000000CF
:1035600030313233343536373839414243444546B9
:103570000000000000F058F90544761C307800285F
:103580007FF4ECAD19B02846BDE8F08F620700D497
:10359000062709F1070222F0070CFCE80223E146A6
:1035A00003F000485FEA080C02D00FF2702C0DE027
:1035B0005FEA045C02D50FF2682C07E05FEAC47C86
:1035C00002D00FF2602C01E0AFF2700C4FF0FF3828
:1035D00023F00043CDF850C065280CD006DC452808
:1035E00009D046281DD047283DD13DE0662818D097
:1035F00067287ED138E00021112F01DB112000E087
:10360000781CCDE9000106A90EA8FFF7EDFCDDE965
:103610000F010E9A03910021009207F1010A049113
:103620004DE04FF000400097CDE9011006A90EA82B
:10363000FFF7DAFCDDE90F0203920E9B11990022DD
:10364000DDF80CA00093049211B9791C00EB010A7B
:10365000B7EB0A0004D4C0F1FF3007F1010A04906F
:10366000AAEB0700019044E0012F00DA01270021B6
:10367000112F01DD112000E03846CDE9000106A937
:103680000EA8FFF7B1FCDDE90F010E9A03910021AE
:1036900004910092BA4621070CD40399514500DAEF
:1036A0008A46BAF1010F05DD009AAAF10101515CC9
:1036B000302908D0B84202DA10F1040F06DA0121ED
:1036C000CDE9011015E0AAF10101E9E7002805DCC8
:1036D000049901440491AAEB000102E0411C514508
:1036E00000DD8A460499401A401C01904FF00040CA
:1036F0000290200704D40198504501DBCDF80480E6
:1037000000208DF84F0002980DF14F07B0F1004FE7
:1037100025D02B200E9002984FF0020800280CDADA
:10372000404202902D200E9007E00A210298FCF7FB
:1037300037FE3031029007F8011DB8F10001A8F101
:103740000108F2DC02980028EFD1791E0E9808706B
:10375000307800F0200040F0450007F8020D12A874
:10376000C01B00F107081498007800B1012000EB9D
:103770000A01019801EBE07105984144401A401E8E
:103780000590E00306D45B462146179A059800F0A1
:103790005DF805441498007818B15A461799904777
:1037A0006D1CE00324D55B462146179A059800F06E
:1037B0004DF805441CE00498002807DBDDE903010F
:1037C000884203DD0098405C179901E0179930208A
:1037D0005A469047049805F10105401C0490019851
:1037E000401E019004D12E205A46179990476D1C17
:1037F000BAF10001AAF1010ADDDC05E017F8010BBE
:103800005A46179990476D1CB8F10001A8F10108BC
:10381000F4DC5B462146179A0598ABE62D000000C4
:103820002B000000200000002DE9F0410446002597
:103830001E461746880404D405E039462020B047C8
:103840006D1C641EF9D52846BDE8F0812DE9F041D4
:10385000044600251E469046C80301D5302700E0E7
:103860002027880404D505E041463846B0476D1C42
:10387000641EF9D52846BDE8F081000013B50C465A
:103880004FF6FF73012269460248FEF72BFF0098AE
:103890001CBD00004C010020A6B000BF00BF74A0FA
:1038A0000068259073A00068249073A0006823909E
:1038B0006FA00068229071A00068219070A000683D
:1038C000209070A000681F90182119A8FCF7AEFC8A
:1038D0006DA0006818906DA00068179000201690E9
:1038E00069A00068159018210FA8FCF79FFC002024
:1038F0000E900B900C900D9065A103C9CDE90901C4
:1039000000BF00BF0020089000BF00BF4FF434602C
:1039100000F0D0F800BF00205F49088000BF824659
:103920008346079000BF00BF00BF0690059004903B
:10393000FDF7CCFEFFF7F1F8FEF798FFFEF740FF2A
:10394000FFF714F8FEF770FFFFF734F800F054F9B2
:10395000012210215148FDF7A1FE002204214F4809
:10396000FDF79CFE4FF46170FDF76CFD0122042110
:103970004A48FDF793FE4FF4FA70FDF763FD76E0D9
:103980004FF0000AD3460020079000BF00BF00BFE1
:103990004348007801286AD1002041490870C823B3
:1039A0000A220FA915A8FEF7F5FB0FA9497A9DF881
:1039B000442001EB022108B2FCF7B2FC06460022CB
:1039C000384BFCF73EFC0446FCF7CEFC82460FA9C0
:1039D000C97A9DF8462001EB022108B2FCF7A0FC51
:1039E000064600222F4BFCF72CFC0446FCF7BCFCDF
:1039F00083460FA9497B9DF8482001EB022108B2BC
:103A0000FCF78EFC06460022264BFCF71AFC044607
:103A1000FCF7AAFC07900FA9C9789DF83E2001EB9E
:103A2000022108B20FA949799DF8402001EB02213B
:103A300008B20FA9C9799DF8422001EB022108B212
:103A40000798FCF77EFC04460D465846FCF779FCC7
:103A500006460F465046FCF774FC804642460B462D
:103A600011A0CDE90067CDE90245FFF781FA87E7AC
:103A70000800000004000000060000000A0000002A
:103A80000C0000000E0000003E0000005A5B000029
:103A90002381600055550800080000200000024006
:103AA000010000200040AF4025662C25662C2566CD
:103AB0000A000000F0B50B30154D20F0070100247E
:103AC000144A0FE003688B420BD38B4205D95E1A70
:103AD00043184768C3E9006700E04368136002C009
:103AE00004E0021D10680028ECD12046002802D115
:103AF000286808B10020F0BD064A07481060074A50
:103B0000121A22F00702C0E9002401202860D7E73A
:103B100024000020200000209401002090030020B9
:103B20002DE9FF4F87B00C4615461E46DDF87CB0E8
:103B3000DDE91B9ADDF86880159F1698CDE90070C5
:103B400032462946149B079800F04BF8DDE91D1218
:103B50002098CDE9042B8DE80007039106902046BC
:103B600017A90EC900F01AF821460B48FDF770F8A6
:103B700002E06420FDF766FC0748FDF72CFC0028F6
:103B8000F7D102210448FDF74DF808B1FCF70AFF10
:103B90000BB0BDE8F08F0000CC0000202DE9F0470D
:103BA00008AC94E8F010DDE90D894FF0000AC0F888
:103BB00000A0C0F804A0C0F808A0C0F80CA0C0F88D
:103BC00010A0C0F814A0C0F818A04FF0010AC0F867
:103BD0001CA0C0F820A04FF00E0AC0F824A0BDE839
:103BE000F08770B5DDE90445016042608360C46020
:103BF00005610126067570BD00B58DB0002001215C
:103C0000CDE90901CDE90B10059006900790082237
:103C10000890CDE90102039004900420044B122285
:103C2000044900900448FFF77BFF0DB000BD000081
:103C30000027F0185C000020280000200000000091
:103C4000000000000102030406070809000000004C
:103C500001020304743C000800000020280000005A
:103C6000C82F00089C3C00082800002068070000BE
:103C7000D82F000800000000000000000000000035
:103C80000000000010000000010000000024F4000B
:0C3C900000000000000000000000000028
:040000050800018569
:00000001FF
